{
  "_format": "hh-sol-artifact-1",
  "contractName": "stakescription",
  "sourceName": "contracts/stakescription.sol",
  "abi": [
    {
      "inputs": [],
      "stateMutability": "nonpayable",
      "type": "constructor"
    },
    {
      "inputs": [
        {
          "internalType": "string",
          "name": "_name",
          "type": "string"
        },
        {
          "internalType": "uint256",
          "name": "_price",
          "type": "uint256"
        },
        {
          "internalType": "uint256",
          "name": "_timePeriod",
          "type": "uint256"
        },
        {
          "internalType": "string",
          "name": "_planImage",
          "type": "string"
        }
      ],
      "name": "addPlan",
      "outputs": [],
      "stateMutability": "nonpayable",
      "type": "function"
    },
    {
      "inputs": [
        {
          "internalType": "string",
          "name": "_name",
          "type": "string"
        },
        {
          "internalType": "string",
          "name": "_emailId",
          "type": "string"
        },
        {
          "internalType": "uint256",
          "name": "_mobileNumber",
          "type": "uint256"
        },
        {
          "internalType": "string",
          "name": "_userImage",
          "type": "string"
        }
      ],
      "name": "addUser",
      "outputs": [],
      "stateMutability": "nonpayable",
      "type": "function"
    },
    {
      "inputs": [],
      "name": "countPlan",
      "outputs": [
        {
          "internalType": "uint256",
          "name": "",
          "type": "uint256"
        }
      ],
      "stateMutability": "view",
      "type": "function"
    },
    {
      "inputs": [
        {
          "internalType": "address",
          "name": "_userId",
          "type": "address"
        },
        {
          "internalType": "uint256",
          "name": "_planId",
          "type": "uint256"
        }
      ],
      "name": "deActivate",
      "outputs": [],
      "stateMutability": "nonpayable",
      "type": "function"
    },
    {
      "inputs": [
        {
          "internalType": "uint256",
          "name": "_planId",
          "type": "uint256"
        }
      ],
      "name": "deletePlan",
      "outputs": [],
      "stateMutability": "nonpayable",
      "type": "function"
    },
    {
      "inputs": [],
      "name": "deleteUser",
      "outputs": [],
      "stateMutability": "nonpayable",
      "type": "function"
    },
    {
      "inputs": [
        {
          "internalType": "string",
          "name": "_emailId",
          "type": "string"
        }
      ],
      "name": "editUserEmail",
      "outputs": [],
      "stateMutability": "nonpayable",
      "type": "function"
    },
    {
      "inputs": [
        {
          "internalType": "string",
          "name": "_userImage",
          "type": "string"
        }
      ],
      "name": "editUserImage",
      "outputs": [],
      "stateMutability": "nonpayable",
      "type": "function"
    },
    {
      "inputs": [
        {
          "internalType": "uint256",
          "name": "_mobileNumber",
          "type": "uint256"
        }
      ],
      "name": "editUserMobileNumber",
      "outputs": [],
      "stateMutability": "nonpayable",
      "type": "function"
    },
    {
      "inputs": [
        {
          "internalType": "string",
          "name": "_name",
          "type": "string"
        }
      ],
      "name": "editUserName",
      "outputs": [],
      "stateMutability": "nonpayable",
      "type": "function"
    },
    {
      "inputs": [
        {
          "internalType": "uint256",
          "name": "_planId",
          "type": "uint256"
        }
      ],
      "name": "getPlanDetails",
      "outputs": [
        {
          "components": [
            {
              "internalType": "string",
              "name": "name",
              "type": "string"
            },
            {
              "internalType": "uint256",
              "name": "price",
              "type": "uint256"
            },
            {
              "internalType": "uint256",
              "name": "timePeriod",
              "type": "uint256"
            },
            {
              "internalType": "string",
              "name": "planImage",
              "type": "string"
            }
          ],
          "internalType": "struct stakescription.planDetails",
          "name": "",
          "type": "tuple"
        }
      ],
      "stateMutability": "view",
      "type": "function"
    },
    {
      "inputs": [
        {
          "internalType": "address",
          "name": "_userId",
          "type": "address"
        }
      ],
      "name": "getUserDetails",
      "outputs": [
        {
          "components": [
            {
              "internalType": "string",
              "name": "name",
              "type": "string"
            },
            {
              "internalType": "string",
              "name": "emailId",
              "type": "string"
            },
            {
              "internalType": "uint256",
              "name": "mobileNumber",
              "type": "uint256"
            },
            {
              "internalType": "string",
              "name": "userImage",
              "type": "string"
            }
          ],
          "internalType": "struct stakescription.userDetails",
          "name": "",
          "type": "tuple"
        }
      ],
      "stateMutability": "view",
      "type": "function"
    },
    {
      "inputs": [
        {
          "internalType": "address",
          "name": "",
          "type": "address"
        },
        {
          "internalType": "uint256",
          "name": "",
          "type": "uint256"
        }
      ],
      "name": "isUserPlanActive",
      "outputs": [
        {
          "internalType": "bool",
          "name": "",
          "type": "bool"
        }
      ],
      "stateMutability": "view",
      "type": "function"
    },
    {
      "inputs": [
        {
          "internalType": "uint256",
          "name": "",
          "type": "uint256"
        }
      ],
      "name": "planDataMapping",
      "outputs": [
        {
          "internalType": "string",
          "name": "name",
          "type": "string"
        },
        {
          "internalType": "uint256",
          "name": "price",
          "type": "uint256"
        },
        {
          "internalType": "uint256",
          "name": "timePeriod",
          "type": "uint256"
        },
        {
          "internalType": "string",
          "name": "planImage",
          "type": "string"
        }
      ],
      "stateMutability": "view",
      "type": "function"
    },
    {
      "inputs": [
        {
          "internalType": "uint256",
          "name": "",
          "type": "uint256"
        }
      ],
      "name": "planIdArray",
      "outputs": [
        {
          "internalType": "uint256",
          "name": "",
          "type": "uint256"
        }
      ],
      "stateMutability": "view",
      "type": "function"
    },
    {
      "inputs": [
        {
          "internalType": "address",
          "name": "_userId",
          "type": "address"
        },
        {
          "internalType": "uint256",
          "name": "_planId",
          "type": "uint256"
        }
      ],
      "name": "showUserActivePlans",
      "outputs": [
        {
          "internalType": "bool",
          "name": "",
          "type": "bool"
        }
      ],
      "stateMutability": "view",
      "type": "function"
    },
    {
      "inputs": [
        {
          "internalType": "address",
          "name": "_userId",
          "type": "address"
        }
      ],
      "name": "showUserPlans",
      "outputs": [
        {
          "internalType": "uint256[]",
          "name": "",
          "type": "uint256[]"
        }
      ],
      "stateMutability": "view",
      "type": "function"
    },
    {
      "inputs": [
        {
          "internalType": "address",
          "name": "",
          "type": "address"
        }
      ],
      "name": "stakeMapping",
      "outputs": [
        {
          "internalType": "uint256",
          "name": "",
          "type": "uint256"
        }
      ],
      "stateMutability": "view",
      "type": "function"
    },
    {
      "inputs": [
        {
          "internalType": "address",
          "name": "_userId",
          "type": "address"
        },
        {
          "internalType": "uint256",
          "name": "_planId",
          "type": "uint256"
        }
      ],
      "name": "subscribe",
      "outputs": [],
      "stateMutability": "payable",
      "type": "function"
    },
    {
      "inputs": [
        {
          "internalType": "address",
          "name": "",
          "type": "address"
        }
      ],
      "name": "userDataMapping",
      "outputs": [
        {
          "internalType": "string",
          "name": "name",
          "type": "string"
        },
        {
          "internalType": "string",
          "name": "emailId",
          "type": "string"
        },
        {
          "internalType": "uint256",
          "name": "mobileNumber",
          "type": "uint256"
        },
        {
          "internalType": "string",
          "name": "userImage",
          "type": "string"
        }
      ],
      "stateMutability": "view",
      "type": "function"
    },
    {
      "inputs": [
        {
          "internalType": "address",
          "name": "",
          "type": "address"
        },
        {
          "internalType": "uint256",
          "name": "",
          "type": "uint256"
        }
      ],
      "name": "userToPlanMapping",
      "outputs": [
        {
          "internalType": "uint256",
          "name": "",
          "type": "uint256"
        }
      ],
      "stateMutability": "view",
      "type": "function"
    }
  ],
  "bytecode": "0x608060405234801561001057600080fd5b50336000806101000a81548173ffffffffffffffffffffffffffffffffffffffff021916908373ffffffffffffffffffffffffffffffffffffffff160217905550612a6c806100606000396000f3fe60806040526004361061012a5760003560e01c806385066f21116100ab578063a5e2aa541161006f578063a5e2aa54146103f5578063ad5abed814610420578063bd6672c01461045d578063cc3d967b1461049a578063db17c3d9146104d7578063dd85a7f3146105005761012a565b806385066f211461031e5780638b91630f1461035e5780638de6928414610387578063925a06c6146103a357806392ed5cf2146103cc5761012a565b806349ad0dcd116100f257806349ad0dcd1461021257806352d229d81461023b5780636731a2391461027b57806370515b23146102b85780637d1ddd38146102f55761012a565b8063026ff05e1461012f5780630547b14c146101465780631cf8998b1461018357806320d538f0146101ac5780633edda031146101e9575b600080fd5b34801561013b57600080fd5b5061014461053d565b005b34801561015257600080fd5b5061016d6004803603810190610168919061203c565b6105b9565b60405161017a9190612097565b60405180910390f35b34801561018f57600080fd5b506101aa60048036038101906101a591906121f8565b610621565b005b3480156101b857600080fd5b506101d360048036038101906101ce919061203c565b6108e0565b6040516101e09190612250565b60405180910390f35b3480156101f557600080fd5b50610210600480360381019061020b919061226b565b610911565b005b34801561021e57600080fd5b50610239600480360381019061023491906121f8565b6109e1565b005b34801561024757600080fd5b50610262600480360381019061025d9190612326565b610ca0565b60405161027294939291906123db565b60405180910390f35b34801561028757600080fd5b506102a2600480360381019061029d9190612435565b610e68565b6040516102af9190612250565b60405180910390f35b3480156102c457600080fd5b506102df60048036038101906102da919061203c565b610e8c565b6040516102ec9190612097565b60405180910390f35b34801561030157600080fd5b5061031c60048036038101906103179190612435565b610ebb565b005b34801561032a57600080fd5b5061034560048036038101906103409190612435565b61117b565b6040516103559493929190612462565b60405180910390f35b34801561036a57600080fd5b50610385600480360381019061038091906124b5565b6112bb565b005b6103a1600480360381019061039c919061203c565b61149c565b005b3480156103af57600080fd5b506103ca60048036038101906103c59190612435565b611624565b005b3480156103d857600080fd5b506103f360048036038101906103ee919061203c565b6116fb565b005b34801561040157600080fd5b5061040a611768565b6040516104179190612250565b60405180910390f35b34801561042c57600080fd5b5061044760048036038101906104429190612435565b611775565b6040516104549190612617565b60405180910390f35b34801561046957600080fd5b50610484600480360381019061047f9190612326565b6118da565b6040516104919190612250565b60405180910390f35b3480156104a657600080fd5b506104c160048036038101906104bc9190612326565b6118f2565b6040516104ce91906126aa565b60405180910390f35b3480156104e357600080fd5b506104fe60048036038101906104f991906121f8565b611b0b565b005b34801561050c57600080fd5b5061052760048036038101906105229190612326565b611dca565b604051610534919061277b565b60405180910390f35b600460003373ffffffffffffffffffffffffffffffffffffffff1673ffffffffffffffffffffffffffffffffffffffff1681526020019081526020016000206000808201600061058d9190611e61565b60018201600061059d9190611e61565b60028201600090556003820160006105b59190611e61565b5050565b6000600760008473ffffffffffffffffffffffffffffffffffffffff1673ffffffffffffffffffffffffffffffffffffffff168152602001908152602001600020600083815260200190815260200160002060009054906101000a900460ff16905092915050565b6000600460003373ffffffffffffffffffffffffffffffffffffffff1673ffffffffffffffffffffffffffffffffffffffff16815260200190815260200160002060405180608001604052908160008201805461067d906127cc565b80601f01602080910402602001604051908101604052809291908181526020018280546106a9906127cc565b80156106f65780601f106106cb576101008083540402835291602001916106f6565b820191906000526020600020905b8154815290600101906020018083116106d957829003601f168201915b5050505050815260200160018201805461070f906127cc565b80601f016020809104026020016040519081016040528092919081815260200182805461073b906127cc565b80156107885780601f1061075d57610100808354040283529160200191610788565b820191906000526020600020905b81548152906001019060200180831161076b57829003601f168201915b50505050508152602001600282015481526020016003820180546107ab906127cc565b80601f01602080910402602001604051908101604052809291908181526020018280546107d7906127cc565b80156108245780601f106107f957610100808354040283529160200191610824565b820191906000526020600020905b81548152906001019060200180831161080757829003601f168201915b505050505081525050905081816000018190525080600460003373ffffffffffffffffffffffffffffffffffffffff1673ffffffffffffffffffffffffffffffffffffffff1681526020019081526020016000206000820151816000019080519060200190610894929190611ea1565b5060208201518160010190805190602001906108b1929190611ea1565b506040820151816002015560608201518160030190805190602001906108d8929190611ea1565b509050505050565b600660205281600052604060002081815481106108fc57600080fd5b90600052602060002001600091509150505481565b6000604051806080016040528086815260200185815260200184815260200183815250905080600460003373ffffffffffffffffffffffffffffffffffffffff1673ffffffffffffffffffffffffffffffffffffffff1681526020019081526020016000206000820151816000019080519060200190610992929190611ea1565b5060208201518160010190805190602001906109af929190611ea1565b506040820151816002015560608201518160030190805190602001906109d6929190611ea1565b509050505050505050565b6000600460003373ffffffffffffffffffffffffffffffffffffffff1673ffffffffffffffffffffffffffffffffffffffff168152602001908152602001600020604051806080016040529081600082018054610a3d906127cc565b80601f0160208091040260200160405190810160405280929190818152602001828054610a69906127cc565b8015610ab65780601f10610a8b57610100808354040283529160200191610ab6565b820191906000526020600020905b815481529060010190602001808311610a9957829003601f168201915b50505050508152602001600182018054610acf906127cc565b80601f0160208091040260200160405190810160405280929190818152602001828054610afb906127cc565b8015610b485780601f10610b1d57610100808354040283529160200191610b48565b820191906000526020600020905b815481529060010190602001808311610b2b57829003601f168201915b5050505050815260200160028201548152602001600382018054610b6b906127cc565b80601f0160208091040260200160405190810160405280929190818152602001828054610b97906127cc565b8015610be45780601f10610bb957610100808354040283529160200191610be4565b820191906000526020600020905b815481529060010190602001808311610bc757829003601f168201915b505050505081525050905081816060018190525080600460003373ffffffffffffffffffffffffffffffffffffffff1673ffffffffffffffffffffffffffffffffffffffff1681526020019081526020016000206000820151816000019080519060200190610c54929190611ea1565b506020820151816001019080519060200190610c71929190611ea1565b50604082015181600201556060820151816003019080519060200190610c98929190611ea1565b509050505050565b6004602052806000526040600020600091509050806000018054610cc3906127cc565b80601f0160208091040260200160405190810160405280929190818152602001828054610cef906127cc565b8015610d3c5780601f10610d1157610100808354040283529160200191610d3c565b820191906000526020600020905b815481529060010190602001808311610d1f57829003601f168201915b505050505090806001018054610d51906127cc565b80601f0160208091040260200160405190810160405280929190818152602001828054610d7d906127cc565b8015610dca5780601f10610d9f57610100808354040283529160200191610dca565b820191906000526020600020905b815481529060010190602001808311610dad57829003601f168201915b505050505090806002015490806003018054610de5906127cc565b80601f0160208091040260200160405190810160405280929190818152602001828054610e11906127cc565b8015610e5e5780601f10610e3357610100808354040283529160200191610e5e565b820191906000526020600020905b815481529060010190602001808311610e4157829003601f168201915b5050505050905084565b60028181548110610e7857600080fd5b906000526020600020016000915090505481565b60076020528160005260406000206020528060005260406000206000915091509054906101000a900460ff1681565b6000600460003373ffffffffffffffffffffffffffffffffffffffff1673ffffffffffffffffffffffffffffffffffffffff168152602001908152602001600020604051806080016040529081600082018054610f17906127cc565b80601f0160208091040260200160405190810160405280929190818152602001828054610f43906127cc565b8015610f905780601f10610f6557610100808354040283529160200191610f90565b820191906000526020600020905b815481529060010190602001808311610f7357829003601f168201915b50505050508152602001600182018054610fa9906127cc565b80601f0160208091040260200160405190810160405280929190818152602001828054610fd5906127cc565b80156110225780601f10610ff757610100808354040283529160200191611022565b820191906000526020600020905b81548152906001019060200180831161100557829003601f168201915b5050505050815260200160028201548152602001600382018054611045906127cc565b80601f0160208091040260200160405190810160405280929190818152602001828054611071906127cc565b80156110be5780601f10611093576101008083540402835291602001916110be565b820191906000526020600020905b8154815290600101906020018083116110a157829003601f168201915b50505050508152505090508181604001818152505080600460003373ffffffffffffffffffffffffffffffffffffffff1673ffffffffffffffffffffffffffffffffffffffff168152602001908152602001600020600082015181600001908051906020019061112f929190611ea1565b50602082015181600101908051906020019061114c929190611ea1565b50604082015181600201556060820151816003019080519060200190611173929190611ea1565b509050505050565b600560205280600052604060002060009150905080600001805461119e906127cc565b80601f01602080910402602001604051908101604052809291908181526020018280546111ca906127cc565b80156112175780601f106111ec57610100808354040283529160200191611217565b820191906000526020600020905b8154815290600101906020018083116111fa57829003601f168201915b505050505090806001015490806002015490806003018054611238906127cc565b80601f0160208091040260200160405190810160405280929190818152602001828054611264906127cc565b80156112b15780601f10611286576101008083540402835291602001916112b1565b820191906000526020600020905b81548152906001019060200180831161129457829003601f168201915b5050505050905084565b60008054906101000a900473ffffffffffffffffffffffffffffffffffffffff1673ffffffffffffffffffffffffffffffffffffffff163373ffffffffffffffffffffffffffffffffffffffff1614611349576040517f08c379a00000000000000000000000000000000000000000000000000000000081526004016113409061284a565b60405180910390fd5b6000600380549050146113b9576003600160038054905061136a9190612899565b8154811061137b5761137a6128cd565b5b9060005260206000200154600181905550600380548061139e5761139d6128fc565b5b60019003818190600052602060002001600090559055611409565b600280549050600181905550600160008154809291906113d89061292b565b9190505550600260015490806001815401808255809150506001900390600052602060002001600090919091909150555b60006040518060800160405280868152602001858152602001848152602001838152509050806005600060015481526020019081526020016000206000820151816000019080519060200190611460929190611ea1565b5060208201518160010155604082015181600201556060820151816003019080519060200190611491929190611ea1565b509050505050505050565b600060056000838152602001908152602001600020600101549050803410156114fa576040517f08c379a00000000000000000000000000000000000000000000000000000000081526004016114f1906129c0565b60405180910390fd5b34600860003373ffffffffffffffffffffffffffffffffffffffff1673ffffffffffffffffffffffffffffffffffffffff168152602001908152602001600020600082825461154991906129e0565b925050819055506001600760008573ffffffffffffffffffffffffffffffffffffffff1673ffffffffffffffffffffffffffffffffffffffff168152602001908152602001600020600084815260200190815260200160002060006101000a81548160ff021916908315150217905550600660008473ffffffffffffffffffffffffffffffffffffffff1673ffffffffffffffffffffffffffffffffffffffff168152602001908152602001600020829080600181540180825580915050600190039060005260206000200160009091909190915055505050565b6003819080600181540180825580915050600190039060005260206000200160009091909190915055600060405180608001604052806040518060200160405280600081525081526020016000815260200160008152602001604051806020016040528060008152508152509050806005600084815260200190815260200160002060008201518160000190805190602001906116c2929190611ea1565b50602082015181600101556040820151816002015560608201518160030190805190602001906116f3929190611ea1565b509050505050565b6000600760008473ffffffffffffffffffffffffffffffffffffffff1673ffffffffffffffffffffffffffffffffffffffff168152602001908152602001600020600083815260200190815260200160002060006101000a81548160ff0219169083151502179055505050565b6000600280549050905090565b61177d611f27565b600560008381526020019081526020016000206040518060800160405290816000820180546117ab906127cc565b80601f01602080910402602001604051908101604052809291908181526020018280546117d7906127cc565b80156118245780601f106117f957610100808354040283529160200191611824565b820191906000526020600020905b81548152906001019060200180831161180757829003601f168201915b505050505081526020016001820154815260200160028201548152602001600382018054611851906127cc565b80601f016020809104026020016040519081016040528092919081815260200182805461187d906127cc565b80156118ca5780601f1061189f576101008083540402835291602001916118ca565b820191906000526020600020905b8154815290600101906020018083116118ad57829003601f168201915b5050505050815250509050919050565b60086020528060005260406000206000915090505481565b6118fa611f4f565b600460008373ffffffffffffffffffffffffffffffffffffffff1673ffffffffffffffffffffffffffffffffffffffff168152602001908152602001600020604051806080016040529081600082018054611954906127cc565b80601f0160208091040260200160405190810160405280929190818152602001828054611980906127cc565b80156119cd5780601f106119a2576101008083540402835291602001916119cd565b820191906000526020600020905b8154815290600101906020018083116119b057829003601f168201915b505050505081526020016001820180546119e6906127cc565b80601f0160208091040260200160405190810160405280929190818152602001828054611a12906127cc565b8015611a5f5780601f10611a3457610100808354040283529160200191611a5f565b820191906000526020600020905b815481529060010190602001808311611a4257829003601f168201915b5050505050815260200160028201548152602001600382018054611a82906127cc565b80601f0160208091040260200160405190810160405280929190818152602001828054611aae906127cc565b8015611afb5780601f10611ad057610100808354040283529160200191611afb565b820191906000526020600020905b815481529060010190602001808311611ade57829003601f168201915b5050505050815250509050919050565b6000600460003373ffffffffffffffffffffffffffffffffffffffff1673ffffffffffffffffffffffffffffffffffffffff168152602001908152602001600020604051806080016040529081600082018054611b67906127cc565b80601f0160208091040260200160405190810160405280929190818152602001828054611b93906127cc565b8015611be05780601f10611bb557610100808354040283529160200191611be0565b820191906000526020600020905b815481529060010190602001808311611bc357829003601f168201915b50505050508152602001600182018054611bf9906127cc565b80601f0160208091040260200160405190810160405280929190818152602001828054611c25906127cc565b8015611c725780601f10611c4757610100808354040283529160200191611c72565b820191906000526020600020905b815481529060010190602001808311611c5557829003601f168201915b5050505050815260200160028201548152602001600382018054611c95906127cc565b80601f0160208091040260200160405190810160405280929190818152602001828054611cc1906127cc565b8015611d0e5780601f10611ce357610100808354040283529160200191611d0e565b820191906000526020600020905b815481529060010190602001808311611cf157829003601f168201915b505050505081525050905081816020018190525080600460003373ffffffffffffffffffffffffffffffffffffffff1673ffffffffffffffffffffffffffffffffffffffff1681526020019081526020016000206000820151816000019080519060200190611d7e929190611ea1565b506020820151816001019080519060200190611d9b929190611ea1565b50604082015181600201556060820151816003019080519060200190611dc2929190611ea1565b509050505050565b6060600660008373ffffffffffffffffffffffffffffffffffffffff1673ffffffffffffffffffffffffffffffffffffffff168152602001908152602001600020805480602002602001604051908101604052809291908181526020018280548015611e5557602002820191906000526020600020905b815481526020019060010190808311611e41575b50505050509050919050565b508054611e6d906127cc565b6000825580601f10611e7f5750611e9e565b601f016020900490600052602060002090810190611e9d9190611f77565b5b50565b828054611ead906127cc565b90600052602060002090601f016020900481019282611ecf5760008555611f16565b82601f10611ee857805160ff1916838001178555611f16565b82800160010185558215611f16579182015b82811115611f15578251825591602001919060010190611efa565b5b509050611f239190611f77565b5090565b6040518060800160405280606081526020016000815260200160008152602001606081525090565b6040518060800160405280606081526020016060815260200160008152602001606081525090565b5b80821115611f90576000816000905550600101611f78565b5090565b6000604051905090565b600080fd5b600080fd5b600073ffffffffffffffffffffffffffffffffffffffff82169050919050565b6000611fd382611fa8565b9050919050565b611fe381611fc8565b8114611fee57600080fd5b50565b60008135905061200081611fda565b92915050565b6000819050919050565b61201981612006565b811461202457600080fd5b50565b60008135905061203681612010565b92915050565b6000806040838503121561205357612052611f9e565b5b600061206185828601611ff1565b925050602061207285828601612027565b9150509250929050565b60008115159050919050565b6120918161207c565b82525050565b60006020820190506120ac6000830184612088565b92915050565b600080fd5b600080fd5b6000601f19601f8301169050919050565b7f4e487b7100000000000000000000000000000000000000000000000000000000600052604160045260246000fd5b612105826120bc565b810181811067ffffffffffffffff82111715612124576121236120cd565b5b80604052505050565b6000612137611f94565b905061214382826120fc565b919050565b600067ffffffffffffffff821115612163576121626120cd565b5b61216c826120bc565b9050602081019050919050565b82818337600083830152505050565b600061219b61219684612148565b61212d565b9050828152602081018484840111156121b7576121b66120b7565b5b6121c2848285612179565b509392505050565b600082601f8301126121df576121de6120b2565b5b81356121ef848260208601612188565b91505092915050565b60006020828403121561220e5761220d611f9e565b5b600082013567ffffffffffffffff81111561222c5761222b611fa3565b5b612238848285016121ca565b91505092915050565b61224a81612006565b82525050565b60006020820190506122656000830184612241565b92915050565b6000806000806080858703121561228557612284611f9e565b5b600085013567ffffffffffffffff8111156122a3576122a2611fa3565b5b6122af878288016121ca565b945050602085013567ffffffffffffffff8111156122d0576122cf611fa3565b5b6122dc878288016121ca565b93505060406122ed87828801612027565b925050606085013567ffffffffffffffff81111561230e5761230d611fa3565b5b61231a878288016121ca565b91505092959194509250565b60006020828403121561233c5761233b611f9e565b5b600061234a84828501611ff1565b91505092915050565b600081519050919050565b600082825260208201905092915050565b60005b8381101561238d578082015181840152602081019050612372565b8381111561239c576000848401525b50505050565b60006123ad82612353565b6123b7818561235e565b93506123c781856020860161236f565b6123d0816120bc565b840191505092915050565b600060808201905081810360008301526123f581876123a2565b9050818103602083015261240981866123a2565b90506124186040830185612241565b818103606083015261242a81846123a2565b905095945050505050565b60006020828403121561244b5761244a611f9e565b5b600061245984828501612027565b91505092915050565b6000608082019050818103600083015261247c81876123a2565b905061248b6020830186612241565b6124986040830185612241565b81810360608301526124aa81846123a2565b905095945050505050565b600080600080608085870312156124cf576124ce611f9e565b5b600085013567ffffffffffffffff8111156124ed576124ec611fa3565b5b6124f9878288016121ca565b945050602061250a87828801612027565b935050604061251b87828801612027565b925050606085013567ffffffffffffffff81111561253c5761253b611fa3565b5b612548878288016121ca565b91505092959194509250565b600082825260208201905092915050565b600061257082612353565b61257a8185612554565b935061258a81856020860161236f565b612593816120bc565b840191505092915050565b6125a781612006565b82525050565b600060808301600083015184820360008601526125ca8282612565565b91505060208301516125df602086018261259e565b5060408301516125f2604086018261259e565b506060830151848203606086015261260a8282612565565b9150508091505092915050565b6000602082019050818103600083015261263181846125ad565b905092915050565b600060808301600083015184820360008601526126568282612565565b915050602083015184820360208601526126708282612565565b9150506040830151612685604086018261259e565b506060830151848203606086015261269d8282612565565b9150508091505092915050565b600060208201905081810360008301526126c48184612639565b905092915050565b600081519050919050565b600082825260208201905092915050565b6000819050602082019050919050565b6000612704838361259e565b60208301905092915050565b6000602082019050919050565b6000612728826126cc565b61273281856126d7565b935061273d836126e8565b8060005b8381101561276e57815161275588826126f8565b975061276083612710565b925050600181019050612741565b5085935050505092915050565b60006020820190508181036000830152612795818461271d565b905092915050565b7f4e487b7100000000000000000000000000000000000000000000000000000000600052602260045260246000fd5b600060028204905060018216806127e457607f821691505b602082108114156127f8576127f761279d565b5b50919050565b7f6f6e6c79206f776e65722063616e2061646420706c616e730000000000000000600082015250565b600061283460188361235e565b915061283f826127fe565b602082019050919050565b6000602082019050818103600083015261286381612827565b9050919050565b7f4e487b7100000000000000000000000000000000000000000000000000000000600052601160045260246000fd5b60006128a482612006565b91506128af83612006565b9250828210156128c2576128c161286a565b5b828203905092915050565b7f4e487b7100000000000000000000000000000000000000000000000000000000600052603260045260246000fd5b7f4e487b7100000000000000000000000000000000000000000000000000000000600052603160045260246000fd5b600061293682612006565b91507fffffffffffffffffffffffffffffffffffffffffffffffffffffffffffffffff8214156129695761296861286a565b5b600182019050919050565b7f706c656173652070726f766964652070726f7065722076616c75650000000000600082015250565b60006129aa601b8361235e565b91506129b582612974565b602082019050919050565b600060208201905081810360008301526129d98161299d565b9050919050565b60006129eb82612006565b91506129f683612006565b9250827fffffffffffffffffffffffffffffffffffffffffffffffffffffffffffffffff03821115612a2b57612a2a61286a565b5b82820190509291505056fea2646970667358221220d8c5b88b3663bc5b466aaad1cb6f72d9d5351f6647eefbaa53e554a2dc3a37d164736f6c634300080a0033",
  "linkReferences": {},
  "deployedLinkReferences": {}
}